{
  "contractName": "CloudFunding",
  "abi": [
    {
      "constant": true,
      "inputs": [],
      "name": "secondaryCheckPoint",
      "outputs": [
        {
          "name": "",
          "type": "uint256"
        }
      ],
      "payable": false,
      "stateMutability": "view",
      "type": "function",
      "signature": "0x04e5fccb"
    },
    {
      "constant": true,
      "inputs": [],
      "name": "numInvestors",
      "outputs": [
        {
          "name": "",
          "type": "uint256"
        }
      ],
      "payable": false,
      "stateMutability": "view",
      "type": "function",
      "signature": "0x132ae5e9"
    },
    {
      "constant": true,
      "inputs": [],
      "name": "primaryCheckPoint",
      "outputs": [
        {
          "name": "",
          "type": "uint256"
        }
      ],
      "payable": false,
      "stateMutability": "view",
      "type": "function",
      "signature": "0x19a28e15"
    },
    {
      "constant": true,
      "inputs": [],
      "name": "amountPaid",
      "outputs": [
        {
          "name": "",
          "type": "uint256"
        }
      ],
      "payable": false,
      "stateMutability": "view",
      "type": "function",
      "signature": "0x216340c3"
    },
    {
      "constant": true,
      "inputs": [],
      "name": "goalAmount",
      "outputs": [
        {
          "name": "",
          "type": "uint256"
        }
      ],
      "payable": false,
      "stateMutability": "view",
      "type": "function",
      "signature": "0x2636b945"
    },
    {
      "constant": true,
      "inputs": [
        {
          "name": "",
          "type": "address"
        }
      ],
      "name": "investors",
      "outputs": [
        {
          "name": "amount",
          "type": "uint256"
        },
        {
          "name": "secondPay",
          "type": "bool"
        },
        {
          "name": "thirdPay",
          "type": "bool"
        }
      ],
      "payable": false,
      "stateMutability": "view",
      "type": "function",
      "signature": "0x6f7bc9be"
    },
    {
      "constant": true,
      "inputs": [],
      "name": "amountRaised",
      "outputs": [
        {
          "name": "",
          "type": "uint256"
        }
      ],
      "payable": false,
      "stateMutability": "view",
      "type": "function",
      "signature": "0x7b3e5e7b"
    },
    {
      "constant": true,
      "inputs": [],
      "name": "owner",
      "outputs": [
        {
          "name": "",
          "type": "address"
        }
      ],
      "payable": false,
      "stateMutability": "view",
      "type": "function",
      "signature": "0x8da5cb5b"
    },
    {
      "constant": true,
      "inputs": [],
      "name": "stage",
      "outputs": [
        {
          "name": "",
          "type": "uint8"
        }
      ],
      "payable": false,
      "stateMutability": "view",
      "type": "function",
      "signature": "0xc040e6b8"
    },
    {
      "constant": true,
      "inputs": [
        {
          "name": "",
          "type": "uint256"
        }
      ],
      "name": "helper",
      "outputs": [
        {
          "name": "",
          "type": "address"
        }
      ],
      "payable": false,
      "stateMutability": "view",
      "type": "function",
      "signature": "0xdabf7ec4"
    },
    {
      "constant": true,
      "inputs": [],
      "name": "applicantStage",
      "outputs": [
        {
          "name": "",
          "type": "uint8"
        }
      ],
      "payable": false,
      "stateMutability": "view",
      "type": "function",
      "signature": "0xe2818bf3"
    },
    {
      "inputs": [],
      "payable": false,
      "stateMutability": "nonpayable",
      "type": "constructor",
      "signature": "constructor"
    },
    {
      "constant": false,
      "inputs": [
        {
          "indexed": false,
          "name": "_from",
          "type": "address"
        },
        {
          "indexed": false,
          "name": "_amount",
          "type": "uint256"
        },
        {
          "indexed": false,
          "name": "_totalDeposit",
          "type": "uint256"
        }
      ],
      "name": "Funded",
      "outputs": [],
      "payable": true,
      "stateMutability": "payable",
      "type": "event",
      "signature": "0xb60d4288",
      "anonymous": false
    },
    {
      "constant": false,
      "inputs": [
        {
          "indexed": false,
          "name": "_amount",
          "type": "uint256"
        }
      ],
      "name": "Withdrawn",
      "outputs": [],
      "payable": true,
      "stateMutability": "payable",
      "type": "event",
      "signature": "0xd54f948c",
      "anonymous": false
    },
    {
      "constant": false,
      "inputs": [
        {
          "indexed": false,
          "name": "_stage",
          "type": "uint8"
        }
      ],
      "name": "StageChanged",
      "outputs": [],
      "payable": false,
      "stateMutability": "nonpayable",
      "type": "event",
      "signature": "0xb7ee99c0",
      "anonymous": false
    },
    {
      "constant": false,
      "inputs": [
        {
          "name": "_applicantStage",
          "type": "uint8",
          "indexed": false
        }
      ],
      "name": "ApplicantStageChanged",
      "outputs": [],
      "payable": false,
      "stateMutability": "nonpayable",
      "type": "event",
      "signature": "0x1870a6c8",
      "anonymous": false
    },
    {
      "constant": false,
      "inputs": [],
      "name": "fund",
      "outputs": [],
      "payable": true,
      "stateMutability": "payable",
      "type": "function",
      "signature": "0x4fbf9c28"
    },
    {
      "constant": false,
      "inputs": [],
      "name": "firstWithdraw",
      "outputs": [],
      "payable": true,
      "stateMutability": "payable",
      "type": "function",
      "signature": "0xe8bd6d87"
    },
    {
      "constant": false,
      "inputs": [
        {
          "name": "_approve",
          "type": "bool"
        }
      ],
      "name": "firstRequest",
      "outputs": [],
      "payable": false,
      "stateMutability": "nonpayable",
      "type": "function",
      "signature": "0xcce2de58"
    },
    {
      "constant": false,
      "inputs": [
        {
          "name": "_approve",
          "type": "bool"
        }
      ],
      "name": "secondFund",
      "outputs": [],
      "payable": false,
      "stateMutability": "nonpayable",
      "type": "function",
      "signature": "0xa05d2d0e"
    },
    {
      "constant": false,
      "inputs": [],
      "name": "secondWithdraw",
      "outputs": [
        {
          "name": "",
          "type": "uint256"
        },
        {
          "name": "",
          "type": "uint256"
        }
      ],
      "payable": true,
      "stateMutability": "payable",
      "type": "function"
    },
    {
      "constant": false,
      "inputs": [],
      "name": "secondRequest",
      "outputs": [],
      "payable": false,
      "stateMutability": "nonpayable",
      "type": "function"
    },
    {
      "constant": false,
      "inputs": [
        {
          "name": "_approve",
          "type": "bool"
        }
      ],
      "name": "thirdFund",
      "outputs": [],
      "payable": false,
      "stateMutability": "nonpayable",
      "type": "function"
    },
    {
      "constant": false,
      "inputs": [],
      "name": "thirdWithdraw",
      "outputs": [],
      "payable": true,
      "stateMutability": "payable",
      "type": "function"
    },
    {
      "constant": true,
      "inputs": [],
      "name": "config",
      "outputs": [
        {
          "name": "",
          "type": "uint256"
        },
        {
          "name": "",
          "type": "uint256"
        }
      ],
      "payable": false,
      "stateMutability": "view",
      "type": "function"
    }
  ],
  "bytecode": "0x608060405234801561001057600080fd5b5033600060026101000a81548173ffffffffffffffffffffffffffffffffffffffff021916908373ffffffffffffffffffffffffffffffffffffffff160217905550678ac7230489e8000060028190555060008060006101000a81548160ff0219169083600381111561007f57fe5b02179055506001600060016101000a81548160ff021916908360018111156100a357fe5b02179055506014600581905550603c600681905550611549806100c76000396000f3fe60806040526004361061013c576000357c0100000000000000000000000000000000000000000000000000000000900480638539553c116100bd578063cce2de5811610081578063cce2de58146103f2578063dabf7ec41461042f578063e2818bf3146104aa578063e8bd6d87146104e3578063e9b5a2f7146104fa5761013c565b80638539553c146103375780638da5cb5b14610341578063b60d428814610398578063b7ee99c0146103a2578063c040e6b8146103b95761013c565b80632636b945116101045780632636b9451461022a5780633d363f15146102555780636f7bc9be1461025f57806379502c55146102da5780637b3e5e7b1461030c5761013c565b806304e5fccb14610141578063132ae5e91461016c5780631870a6c81461019757806319a28e15146101d4578063216340c3146101ff575b600080fd5b34801561014d57600080fd5b50610156610504565b6040518082815260200191505060405180910390f35b34801561017857600080fd5b5061018161050a565b6040518082815260200191505060405180910390f35b3480156101a357600080fd5b506101d2600480360360208110156101ba57600080fd5b81019080803515159060200190929190505050610510565b005b3480156101e057600080fd5b506101e96105d4565b6040518082815260200191505060405180910390f35b34801561020b57600080fd5b506102146105da565b6040518082815260200191505060405180910390f35b34801561023657600080fd5b5061023f6105e0565b6040518082815260200191505060405180910390f35b61025d6105e6565b005b34801561026b57600080fd5b506102ae6004803603602081101561028257600080fd5b81019080803573ffffffffffffffffffffffffffffffffffffffff169060200190929190505050610a80565b604051808481526020018315151515815260200182151515158152602001935050505060405180910390f35b3480156102e657600080fd5b506102ef610ac4565b604051808381526020018281526020019250505060405180910390f35b34801561031857600080fd5b50610321610ad5565b6040518082815260200191505060405180910390f35b61033f610adb565b005b34801561034d57600080fd5b50610356610e6f565b604051808273ffffffffffffffffffffffffffffffffffffffff1673ffffffffffffffffffffffffffffffffffffffff16815260200191505060405180910390f35b6103a0610e95565b005b3480156103ae57600080fd5b506103b7610ffa565b005b3480156103c557600080fd5b506103ce611100565b604051808260038111156103de57fe5b60ff16815260200191505060405180910390f35b3480156103fe57600080fd5b5061042d6004803603602081101561041557600080fd5b81019080803515159060200190929190505050611112565b005b34801561043b57600080fd5b506104686004803603602081101561045257600080fd5b81019080803590602001909291905050506111d6565b604051808273ffffffffffffffffffffffffffffffffffffffff1673ffffffffffffffffffffffffffffffffffffffff16815260200191505060405180910390f35b3480156104b657600080fd5b506104bf611209565b604051808260018111156104cf57fe5b60ff16815260200191505060405180910390f35b3480156104ef57600080fd5b506104f861121c565b005b610502611322565b005b60065481565b60015481565b600180600381111561051e57fe5b6000809054906101000a900460ff16600381111561053857fe5b1461054257600080fd5b600080600181111561055057fe5b600060019054906101000a900460ff16600181111561056b57fe5b1461057557600080fd5b82600760003373ffffffffffffffffffffffffffffffffffffffff1673ffffffffffffffffffffffffffffffffffffffff16815260200190815260200160002060010160006101000a81548160ff021916908315150217905550505050565b60055481565b60045481565b60025481565b3373ffffffffffffffffffffffffffffffffffffffff16600060029054906101000a900473ffffffffffffffffffffffffffffffffffffffff1673ffffffffffffffffffffffffffffffffffffffff161461064057600080fd5b600180600381111561064e57fe5b6000809054906101000a900460ff16600381111561066857fe5b1461067257600080fd5b600080600181111561068057fe5b600060019054906101000a900460ff16600181111561069b57fe5b146106a557600080fd5b600080600190505b60015481116108ec57600760006008600084815260200190815260200160002060009054906101000a900473ffffffffffffffffffffffffffffffffffffffff1673ffffffffffffffffffffffffffffffffffffffff1673ffffffffffffffffffffffffffffffffffffffff16815260200190815260200160002060010160009054906101000a900460ff16156107de576107d8606460055460065403600760006008600087815260200190815260200160002060009054906101000a900473ffffffffffffffffffffffffffffffffffffffff1673ffffffffffffffffffffffffffffffffffffffff1673ffffffffffffffffffffffffffffffffffffffff1681526020019081526020016000206000015402816107c857fe5b04836114fe90919063ffffffff16565b506108df565b6008600082815260200190815260200160002060009054906101000a900473ffffffffffffffffffffffffffffffffffffffff1673ffffffffffffffffffffffffffffffffffffffff166108fc6004600554606403600760006008600088815260200190815260200160002060009054906101000a900473ffffffffffffffffffffffffffffffffffffffff1673ffffffffffffffffffffffffffffffffffffffff1673ffffffffffffffffffffffffffffffffffffffff1681526020019081526020016000206000015402816108b157fe5b049081150290604051600060405180830381858888f193505050501580156108dd573d6000803e3d6000fd5b505b80806001019150506106ad565b50600060029054906101000a900473ffffffffffffffffffffffffffffffffffffffff1673ffffffffffffffffffffffffffffffffffffffff166108fc829081150290604051600060405180830381858888f19350505050158015610955573d6000803e3d6000fd5b507f430648de173157e069201c943adb2d4e340e7cf5b27b1b09c9cb852f03d63b56816040518082815260200191505060405180910390a160026000806101000a81548160ff021916908360038111156109ab57fe5b02179055507f273467821f33675618854603ef917ebcec8a1a39f95c43d5564ed1aefab870b36000809054906101000a900460ff16604051808260038111156109f057fe5b60ff16815260200191505060405180910390a16001600060016101000a81548160ff02191690836001811115610a2257fe5b02179055507ff70cc1ad704aee0ee997f9f4a8166dee9759268af59ecd26cf545c97f7903ea1600060019054906101000a900460ff1660405180826001811115610a6857fe5b60ff16815260200191505060405180910390a1505050565b60076020528060005260406000206000915090508060000154908060010160009054906101000a900460ff16908060010160019054906101000a900460ff16905083565b600080600154600354915091509091565b60035481565b3373ffffffffffffffffffffffffffffffffffffffff16600060029054906101000a900473ffffffffffffffffffffffffffffffffffffffff1673ffffffffffffffffffffffffffffffffffffffff1614610b3557600080fd5b6002806003811115610b4357fe5b6000809054906101000a900460ff166003811115610b5d57fe5b14610b6757600080fd5b6000806001811115610b7557fe5b600060019054906101000a900460ff166001811115610b9057fe5b14610b9a57600080fd5b600080600190505b6001548111610cdb57600760006008600084815260200190815260200160002060009054906101000a900473ffffffffffffffffffffffffffffffffffffffff1673ffffffffffffffffffffffffffffffffffffffff1673ffffffffffffffffffffffffffffffffffffffff16815260200190815260200160002060010160019054906101000a900460ff1615610cce57610ccc6064600654606403600760006008600087815260200190815260200160002060009054906101000a900473ffffffffffffffffffffffffffffffffffffffff1673ffffffffffffffffffffffffffffffffffffffff1673ffffffffffffffffffffffffffffffffffffffff168152602001908152602001600020600001540281610cbc57fe5b04836114fe90919063ffffffff16565b505b8080600101915050610ba2565b50600060029054906101000a900473ffffffffffffffffffffffffffffffffffffffff1673ffffffffffffffffffffffffffffffffffffffff166108fc829081150290604051600060405180830381858888f19350505050158015610d44573d6000803e3d6000fd5b507f430648de173157e069201c943adb2d4e340e7cf5b27b1b09c9cb852f03d63b56816040518082815260200191505060405180910390a160036000806101000a81548160ff02191690836003811115610d9a57fe5b02179055507f273467821f33675618854603ef917ebcec8a1a39f95c43d5564ed1aefab870b36000809054906101000a900460ff1660405180826003811115610ddf57fe5b60ff16815260200191505060405180910390a16001600060016101000a81548160ff02191690836001811115610e1157fe5b02179055507ff70cc1ad704aee0ee997f9f4a8166dee9759268af59ecd26cf545c97f7903ea1600060019054906101000a900460ff1660405180826001811115610e5757fe5b60ff16815260200191505060405180910390a1505050565b600060029054906101000a900473ffffffffffffffffffffffffffffffffffffffff1681565b6000806003811115610ea357fe5b6000809054906101000a900460ff166003811115610ebd57fe5b14610ec757600080fd5b34600760003373ffffffffffffffffffffffffffffffffffffffff1673ffffffffffffffffffffffffffffffffffffffff16815260200190815260200160002060000181905550600180600082825401925050819055503360086000600154815260200190815260200160002060006101000a81548173ffffffffffffffffffffffffffffffffffffffff021916908373ffffffffffffffffffffffffffffffffffffffff160217905550346003600082825401925050819055507fcd909ec339185c4598a4096e174308fbdf136d117f230960f873a2f2e81f63af3334600354604051808473ffffffffffffffffffffffffffffffffffffffff1673ffffffffffffffffffffffffffffffffffffffff168152602001838152602001828152602001935050505060405180910390a150565b3373ffffffffffffffffffffffffffffffffffffffff16600060029054906101000a900473ffffffffffffffffffffffffffffffffffffffff1673ffffffffffffffffffffffffffffffffffffffff161461105457600080fd5b600180600381111561106257fe5b6000809054906101000a900460ff16600381111561107c57fe5b1461108657600080fd5b60008060016101000a81548160ff021916908360018111156110a457fe5b02179055507ff70cc1ad704aee0ee997f9f4a8166dee9759268af59ecd26cf545c97f7903ea1600060019054906101000a900460ff16604051808260018111156110ea57fe5b60ff16815260200191505060405180910390a150565b6000809054906101000a900460ff1681565b600280600381111561112057fe5b6000809054906101000a900460ff16600381111561113a57fe5b1461114457600080fd5b600080600181111561115257fe5b600060019054906101000a900460ff16600181111561116d57fe5b1461117757600080fd5b82600760003373ffffffffffffffffffffffffffffffffffffffff1673ffffffffffffffffffffffffffffffffffffffff16815260200190815260200160002060010160016101000a81548160ff021916908315150217905550505050565b60086020528060005260406000206000915054906101000a900473ffffffffffffffffffffffffffffffffffffffff1681565b600060019054906101000a900460ff1681565b3373ffffffffffffffffffffffffffffffffffffffff16600060029054906101000a900473ffffffffffffffffffffffffffffffffffffffff1673ffffffffffffffffffffffffffffffffffffffff161461127657600080fd5b600280600381111561128457fe5b6000809054906101000a900460ff16600381111561129e57fe5b146112a857600080fd5b60008060016101000a81548160ff021916908360018111156112c657fe5b02179055507ff70cc1ad704aee0ee997f9f4a8166dee9759268af59ecd26cf545c97f7903ea1600060019054906101000a900460ff166040518082600181111561130c57fe5b60ff16815260200191505060405180910390a150565b3373ffffffffffffffffffffffffffffffffffffffff16600060029054906101000a900473ffffffffffffffffffffffffffffffffffffffff1673ffffffffffffffffffffffffffffffffffffffff161461137c57600080fd5b600080600381111561138a57fe5b6000809054906101000a900460ff1660038111156113a457fe5b146113ae57600080fd5b60025460035410156113bf57600080fd5b6000606460055460035402816113d157fe5b049050600060029054906101000a900473ffffffffffffffffffffffffffffffffffffffff1673ffffffffffffffffffffffffffffffffffffffff166108fc829081150290604051600060405180830381858888f1935050505015801561143c573d6000803e3d6000fd5b50806004600082825401925050819055507f430648de173157e069201c943adb2d4e340e7cf5b27b1b09c9cb852f03d63b56816040518082815260200191505060405180910390a160016000806101000a81548160ff021916908360038111156114a257fe5b02179055507f273467821f33675618854603ef917ebcec8a1a39f95c43d5564ed1aefab870b36000809054906101000a900460ff16604051808260038111156114e757fe5b60ff16815260200191505060405180910390a15050565b60008082840190508381101561151357600080fd5b809150509291505056fea165627a7a72305820f76356f65a5fae9f2bc7307d7005aacae43e6de54315c2e331b5cf4bcf14d30f0029",
  "source": "pragma solidity ^0.5.8;\nimport \"./SafeMath.sol\";\n\ncontract CloudFunding {\n\tusing SafeMath for uint;\n    enum Stages {\n        FirstStage,\n        SecondStage,\n        ThirdStage,\n\t\tFinished\n    }\n    \n    enum ApplicantStages {\n        Asked,\n        NotAsked\n    }\n\n    struct Investor {\n        uint amount;\n        bool secondPay;\n        bool thirdPay;\n    }\n\n    // CrowdFunding config\n    Stages public stage;\n    ApplicantStages public applicantStage;\n    \n    address payable public owner; //Applicant\n    uint public numInvestors; \n    uint public goalAmount; \n    uint public amountRaised;\n\tuint public amountPaid;\n    uint public primaryCheckPoint;\n    uint public secondaryCheckPoint;\n    mapping (address => Investor) public investors;\n\tmapping (uint => address payable) public helper;\n    \n    \n    // Initialize\n    constructor() public {\n        owner = msg.sender;\n        goalAmount = 10 ether;\n        stage = Stages.FirstStage;\n        applicantStage = ApplicantStages.NotAsked;\n        primaryCheckPoint = 20; //percent\n        secondaryCheckPoint = 60; //percent\n    }\n    \n    // First Funding\n\t/** \n\t* 出資\n\t*/\n    function fund() public payable onlyStageAt(Stages.FirstStage){\n        investors[msg.sender].amount = msg.value;\n\t\tnumInvestors += 1;\n\t\thelper[numInvestors] = msg.sender;\n        amountRaised += msg.value;\n\t\temit Funded(msg.sender, msg.value, amountRaised);\n    }\n    \n\t/** \n\t* 引き出し\n\t*/\n    function firstWithdraw() public payable onlyOwner onlyStageAt(Stages.FirstStage){\n        require(amountRaised >= goalAmount);\n\t\tuint _amount = amountRaised * primaryCheckPoint / 100;\n        owner.transfer(_amount);\n\t\tamountPaid += _amount;\n\t\temit Withdrawn(_amount);\n\n        stage = Stages.SecondStage;\n\t\temit StageChanged(stage);\n    }\n    \n    function firstRequest() public onlyOwner onlyStageAt(Stages.SecondStage){\n        applicantStage = ApplicantStages.Asked;\n\t\temit ApplicantStageChanged(applicantStage);\n    }\n    \n    function secondFund(bool _approve) public onlyStageAt(Stages.SecondStage) onlyAt(ApplicantStages.Asked){\n\t\tinvestors[msg.sender].secondPay = _approve;\n    }\n\n\tfunction secondWithdraw() public payable onlyOwner onlyStageAt(Stages.SecondStage) onlyAt(ApplicantStages.Asked) {\n\t\tuint _amount;\n\t\tfor(uint i = 1; i <= numInvestors; i++) {\n\t\t\tif(investors[helper[i]].secondPay) {\n\t\t\t\t_amount.add( investors[helper[i]].amount * (secondaryCheckPoint - primaryCheckPoint) / 100 );\n\t\t\t} else {\n\t\t\t\thelper[i].transfer(investors[helper[i]].amount * (100 - primaryCheckPoint) / 4);\n\t\t\t}\n\t\t}\n\n\t\towner.transfer(_amount);\n\t\temit Withdrawn(_amount);\n\t\tstage = Stages.ThirdStage;\n\t\temit StageChanged(stage);\n\t\tapplicantStage = ApplicantStages.NotAsked;\n\t\temit ApplicantStageChanged(applicantStage);\n\t}\n\n\tfunction secondRequest() public onlyOwner onlyStageAt(Stages.ThirdStage){\n\t\tapplicantStage = ApplicantStages.Asked;\n\t\temit ApplicantStageChanged(applicantStage);\n\t}\n\n\tfunction thirdFund(bool _approve) public onlyStageAt(Stages.ThirdStage) onlyAt(ApplicantStages.Asked){\n\t\tinvestors[msg.sender].thirdPay = _approve;\n    }\n\n\tfunction thirdWithdraw() public payable onlyOwner onlyStageAt(Stages.ThirdStage) onlyAt(ApplicantStages.Asked) {\n\t\tuint _amount;\n\t\tfor(uint i = 1; i <= numInvestors; i++) {\n\t\t\tif(investors[helper[i]].thirdPay) {\n\t\t\t\t_amount.add( investors[helper[i]].amount * (100 - secondaryCheckPoint) / 100 );\n\t\t\t}\n\t\t}\n\n\t\towner.transfer(_amount);\n\t\temit Withdrawn(_amount);\n\t\tstage = Stages.Finished;\n\t\temit StageChanged(stage);\n\t\tapplicantStage = ApplicantStages.NotAsked;\n\t\temit ApplicantStageChanged(applicantStage);\n\t}\n    \n\n\n\tfunction config() public view returns(uint, uint){\n\t\treturn (numInvestors, amountRaised);\n\t}\n\n\n\n\n\n    // modifiers\n    modifier onlyStageAt(Stages _stage) {\n        require(stage == _stage);\n        _;\n    }\n\n\tmodifier onlyAt(ApplicantStages _applicantStage) {\n\t\trequire(applicantStage == _applicantStage);\n\t\t_;\n\t}\n    \n    modifier onlyOwner{\n        require(owner == msg.sender);\n        _;\n    }\n\n\n\n\n\t//Events\n\tevent Funded(address _from, uint _amount, uint _totalDeposit);\n\tevent Withdrawn(uint _amount);\n\tevent StageChanged(Stages _stage);\n\tevent ApplicantStageChanged(ApplicantStages _applicantStage);\n}",
  "sourcePath": "/Users/shimotori/workspace/hackathon/mirai/blockchain/contracts/CloudFunding.sol",
  "compiler": {
    "name": "solc",
    "version": "0.5.8+commit.23d335f2.Emscripten.clang"
  },
  "schemaVersion": "3.0.6",
  "updatedAt": "2019-06-08T12:45:50.023Z",
  "devdoc": {
    "methods": {}
  },
  "userdoc": {
    "methods": {
      "firstWithdraw()": {
        "notice": "引き出し"
      },
      "fund()": {
        "notice": "出資"
      }
    }
  }
}