{
  "contractName": "core",
  "abi": [
    {
      "constant": true,
      "inputs": [],
      "name": "secondaryCheckPoint",
      "outputs": [
        {
          "name": "",
          "type": "uint256"
        }
      ],
      "payable": false,
      "stateMutability": "view",
      "type": "function"
    },
    {
      "constant": true,
      "inputs": [],
      "name": "numInvestors",
      "outputs": [
        {
          "name": "",
          "type": "uint256"
        }
      ],
      "payable": false,
      "stateMutability": "view",
      "type": "function"
    },
    {
      "constant": true,
      "inputs": [],
      "name": "primaryCheckPoint",
      "outputs": [
        {
          "name": "",
          "type": "uint256"
        }
      ],
      "payable": false,
      "stateMutability": "view",
      "type": "function"
    },
    {
      "constant": true,
      "inputs": [],
      "name": "amountPaid",
      "outputs": [
        {
          "name": "",
          "type": "uint256"
        }
      ],
      "payable": false,
      "stateMutability": "view",
      "type": "function"
    },
    {
      "constant": true,
      "inputs": [],
      "name": "goalAmount",
      "outputs": [
        {
          "name": "",
          "type": "uint256"
        }
      ],
      "payable": false,
      "stateMutability": "view",
      "type": "function"
    },
    {
      "constant": true,
      "inputs": [
        {
          "name": "",
          "type": "address"
        }
      ],
      "name": "investors",
      "outputs": [
        {
          "name": "amount",
          "type": "uint256"
        },
        {
          "name": "secondPay",
          "type": "bool"
        },
        {
          "name": "thirdPay",
          "type": "bool"
        }
      ],
      "payable": false,
      "stateMutability": "view",
      "type": "function"
    },
    {
      "constant": true,
      "inputs": [],
      "name": "amountRaised",
      "outputs": [
        {
          "name": "",
          "type": "uint256"
        }
      ],
      "payable": false,
      "stateMutability": "view",
      "type": "function"
    },
    {
      "constant": true,
      "inputs": [],
      "name": "owner",
      "outputs": [
        {
          "name": "",
          "type": "address"
        }
      ],
      "payable": false,
      "stateMutability": "view",
      "type": "function"
    },
    {
      "constant": true,
      "inputs": [],
      "name": "stage",
      "outputs": [
        {
          "name": "",
          "type": "uint8"
        }
      ],
      "payable": false,
      "stateMutability": "view",
      "type": "function"
    },
    {
      "constant": true,
      "inputs": [
        {
          "name": "",
          "type": "uint256"
        }
      ],
      "name": "helper",
      "outputs": [
        {
          "name": "",
          "type": "address"
        }
      ],
      "payable": false,
      "stateMutability": "view",
      "type": "function"
    },
    {
      "constant": true,
      "inputs": [],
      "name": "applicantStage",
      "outputs": [
        {
          "name": "",
          "type": "uint8"
        }
      ],
      "payable": false,
      "stateMutability": "view",
      "type": "function"
    },
    {
      "inputs": [],
      "payable": false,
      "stateMutability": "nonpayable",
      "type": "constructor"
    },
    {
      "constant": false,
      "inputs": [],
      "name": "fund",
      "outputs": [],
      "payable": true,
      "stateMutability": "payable",
      "type": "function"
    },
    {
      "constant": false,
      "inputs": [],
      "name": "firstEarn",
      "outputs": [],
      "payable": true,
      "stateMutability": "payable",
      "type": "function"
    },
    {
      "constant": false,
      "inputs": [],
      "name": "firstRequest",
      "outputs": [],
      "payable": false,
      "stateMutability": "nonpayable",
      "type": "function"
    },
    {
      "constant": false,
      "inputs": [
        {
          "name": "_approve",
          "type": "bool"
        }
      ],
      "name": "secondFund",
      "outputs": [],
      "payable": false,
      "stateMutability": "nonpayable",
      "type": "function"
    },
    {
      "constant": false,
      "inputs": [],
      "name": "secondEarn",
      "outputs": [],
      "payable": true,
      "stateMutability": "payable",
      "type": "function"
    },
    {
      "constant": false,
      "inputs": [],
      "name": "secondRequest",
      "outputs": [],
      "payable": false,
      "stateMutability": "nonpayable",
      "type": "function"
    },
    {
      "constant": false,
      "inputs": [
        {
          "name": "_approve",
          "type": "bool"
        }
      ],
      "name": "thirdFund",
      "outputs": [],
      "payable": false,
      "stateMutability": "nonpayable",
      "type": "function"
    },
    {
      "constant": false,
      "inputs": [],
      "name": "thirdEarn",
      "outputs": [],
      "payable": true,
      "stateMutability": "payable",
      "type": "function"
    }
  ],
  "bytecode": "0x608060405234801561001057600080fd5b5033600060026101000a81548173ffffffffffffffffffffffffffffffffffffffff021916908373ffffffffffffffffffffffffffffffffffffffff160217905550678ac7230489e8000060028190555060008060006101000a81548160ff0219169083600381111561007f57fe5b02179055506001600060016101000a81548160ff021916908360018111156100a357fe5b02179055506014600581905550603c6006819055506110a3806100c76000396000f3fe608060405260043610610131576000357c0100000000000000000000000000000000000000000000000000000000900480638da5cb5b116100bd578063cce2de5811610081578063cce2de58146103b5578063d54f948c146103f2578063dabf7ec4146103fc578063e2818bf314610477578063e8bd6d87146104b057610131565b80638da5cb5b146102fa578063a05d2d0e14610351578063b60d42881461035b578063b7ee99c014610365578063c040e6b81461037c57610131565b8063216340c311610104578063216340c3146101f45780632636b9451461021f5780634fbf9c281461024a5780636f7bc9be146102545780637b3e5e7b146102cf57610131565b806304e5fccb14610136578063132ae5e9146101615780631870a6c81461018c57806319a28e15146101c9575b600080fd5b34801561014257600080fd5b5061014b6104c7565b6040518082815260200191505060405180910390f35b34801561016d57600080fd5b506101766104cd565b6040518082815260200191505060405180910390f35b34801561019857600080fd5b506101c7600480360360208110156101af57600080fd5b810190808035151590602001909291905050506104d3565b005b3480156101d557600080fd5b506101de610597565b6040518082815260200191505060405180910390f35b34801561020057600080fd5b5061020961059d565b6040518082815260200191505060405180910390f35b34801561022b57600080fd5b506102346105a3565b6040518082815260200191505060405180910390f35b6102526105a9565b005b34801561026057600080fd5b506102a36004803603602081101561027757600080fd5b81019080803573ffffffffffffffffffffffffffffffffffffffff169060200190929190505050610860565b604051808481526020018315151515815260200182151515158152602001935050505060405180910390f35b3480156102db57600080fd5b506102e46108a4565b6040518082815260200191505060405180910390f35b34801561030657600080fd5b5061030f6108aa565b604051808273ffffffffffffffffffffffffffffffffffffffff1673ffffffffffffffffffffffffffffffffffffffff16815260200191505060405180910390f35b6103596108d0565b005b610363610b86565b005b34801561037157600080fd5b5061037a610c76565b005b34801561038857600080fd5b50610391610d28565b604051808260038111156103a157fe5b60ff16815260200191505060405180910390f35b3480156103c157600080fd5b506103f0600480360360208110156103d857600080fd5b81019080803515159060200190929190505050610d3a565b005b6103fa610dfe565b005b34801561040857600080fd5b506104356004803603602081101561041f57600080fd5b8101908080359060200190929190505050610f60565b604051808273ffffffffffffffffffffffffffffffffffffffff1673ffffffffffffffffffffffffffffffffffffffff16815260200191505060405180910390f35b34801561048357600080fd5b5061048c610f93565b6040518082600181111561049c57fe5b60ff16815260200191505060405180910390f35b3480156104bc57600080fd5b506104c5610fa6565b005b60065481565b60015481565b60018060038111156104e157fe5b6000809054906101000a900460ff1660038111156104fb57fe5b1461050557600080fd5b600080600181111561051357fe5b600060019054906101000a900460ff16600181111561052e57fe5b1461053857600080fd5b82600760003373ffffffffffffffffffffffffffffffffffffffff1673ffffffffffffffffffffffffffffffffffffffff16815260200190815260200160002060010160006101000a81548160ff021916908315150217905550505050565b60055481565b60045481565b60025481565b3373ffffffffffffffffffffffffffffffffffffffff16600060029054906101000a900473ffffffffffffffffffffffffffffffffffffffff1673ffffffffffffffffffffffffffffffffffffffff161461060357600080fd5b600180600381111561061157fe5b6000809054906101000a900460ff16600381111561062b57fe5b1461063557600080fd5b600080600181111561064357fe5b600060019054906101000a900460ff16600181111561065e57fe5b1461066857600080fd5b600080600190505b60015481116107aa57600760006008600084815260200190815260200160002060009054906101000a900473ffffffffffffffffffffffffffffffffffffffff1673ffffffffffffffffffffffffffffffffffffffff1673ffffffffffffffffffffffffffffffffffffffff16815260200190815260200160002060010160009054906101000a900460ff161561079d5761079b606460055460065403600760006008600087815260200190815260200160002060009054906101000a900473ffffffffffffffffffffffffffffffffffffffff1673ffffffffffffffffffffffffffffffffffffffff1673ffffffffffffffffffffffffffffffffffffffff16815260200190815260200160002060000154028161078b57fe5b048361105890919063ffffffff16565b505b8080600101915050610670565b50600060029054906101000a900473ffffffffffffffffffffffffffffffffffffffff1673ffffffffffffffffffffffffffffffffffffffff166108fc829081150290604051600060405180830381858888f19350505050158015610813573d6000803e3d6000fd5b5060026000806101000a81548160ff0219169083600381111561083257fe5b02179055506001600060016101000a81548160ff0219169083600181111561085657fe5b0217905550505050565b60076020528060005260406000206000915090508060000154908060010160009054906101000a900460ff16908060010160019054906101000a900460ff16905083565b60035481565b600060029054906101000a900473ffffffffffffffffffffffffffffffffffffffff1681565b3373ffffffffffffffffffffffffffffffffffffffff16600060029054906101000a900473ffffffffffffffffffffffffffffffffffffffff1673ffffffffffffffffffffffffffffffffffffffff161461092a57600080fd5b600280600381111561093857fe5b6000809054906101000a900460ff16600381111561095257fe5b1461095c57600080fd5b600080600181111561096a57fe5b600060019054906101000a900460ff16600181111561098557fe5b1461098f57600080fd5b600080600190505b6001548111610ad057600760006008600084815260200190815260200160002060009054906101000a900473ffffffffffffffffffffffffffffffffffffffff1673ffffffffffffffffffffffffffffffffffffffff1673ffffffffffffffffffffffffffffffffffffffff16815260200190815260200160002060010160019054906101000a900460ff1615610ac357610ac16064600654600103600760006008600087815260200190815260200160002060009054906101000a900473ffffffffffffffffffffffffffffffffffffffff1673ffffffffffffffffffffffffffffffffffffffff1673ffffffffffffffffffffffffffffffffffffffff168152602001908152602001600020600001540281610ab157fe5b048361105890919063ffffffff16565b505b8080600101915050610997565b50600060029054906101000a900473ffffffffffffffffffffffffffffffffffffffff1673ffffffffffffffffffffffffffffffffffffffff166108fc829081150290604051600060405180830381858888f19350505050158015610b39573d6000803e3d6000fd5b5060036000806101000a81548160ff02191690836003811115610b5857fe5b02179055506001600060016101000a81548160ff02191690836001811115610b7c57fe5b0217905550505050565b6000806003811115610b9457fe5b6000809054906101000a900460ff166003811115610bae57fe5b14610bb857600080fd5b34600760003373ffffffffffffffffffffffffffffffffffffffff1673ffffffffffffffffffffffffffffffffffffffff16815260200190815260200160002060000181905550600180600082825401925050819055503360086000600154815260200190815260200160002060006101000a81548173ffffffffffffffffffffffffffffffffffffffff021916908373ffffffffffffffffffffffffffffffffffffffff1602179055503460036000828254019250508190555050565b3373ffffffffffffffffffffffffffffffffffffffff16600060029054906101000a900473ffffffffffffffffffffffffffffffffffffffff1673ffffffffffffffffffffffffffffffffffffffff1614610cd057600080fd5b6001806003811115610cde57fe5b6000809054906101000a900460ff166003811115610cf857fe5b14610d0257600080fd5b60008060016101000a81548160ff02191690836001811115610d2057fe5b021790555050565b6000809054906101000a900460ff1681565b6002806003811115610d4857fe5b6000809054906101000a900460ff166003811115610d6257fe5b14610d6c57600080fd5b6000806001811115610d7a57fe5b600060019054906101000a900460ff166001811115610d9557fe5b14610d9f57600080fd5b82600760003373ffffffffffffffffffffffffffffffffffffffff1673ffffffffffffffffffffffffffffffffffffffff16815260200190815260200160002060010160016101000a81548160ff021916908315150217905550505050565b3373ffffffffffffffffffffffffffffffffffffffff16600060029054906101000a900473ffffffffffffffffffffffffffffffffffffffff1673ffffffffffffffffffffffffffffffffffffffff1614610e5857600080fd5b6000806003811115610e6657fe5b6000809054906101000a900460ff166003811115610e8057fe5b14610e8a57600080fd5b6002546003541015610e9b57600080fd5b600060029054906101000a900473ffffffffffffffffffffffffffffffffffffffff1673ffffffffffffffffffffffffffffffffffffffff166108fc60646005546003540281610ee757fe5b049081150290604051600060405180830381858888f19350505050158015610f13573d6000803e3d6000fd5b50610f3960646005546003540281610f2757fe5b0460045461105890919063ffffffff16565b5060016000806101000a81548160ff02191690836003811115610f5857fe5b021790555050565b60086020528060005260406000206000915054906101000a900473ffffffffffffffffffffffffffffffffffffffff1681565b600060019054906101000a900460ff1681565b3373ffffffffffffffffffffffffffffffffffffffff16600060029054906101000a900473ffffffffffffffffffffffffffffffffffffffff1673ffffffffffffffffffffffffffffffffffffffff161461100057600080fd5b600280600381111561100e57fe5b6000809054906101000a900460ff16600381111561102857fe5b1461103257600080fd5b60008060016101000a81548160ff0219169083600181111561105057fe5b021790555050565b60008082840190508381101561106d57600080fd5b809150509291505056fea165627a7a723058206f98123cda177bce7833548db7b53a6cf887b792be01067fe8b073bce11de9250029",
  "source": "pragma solidity ^0.5.8;\nimport \"./SafeMath.sol\";\n\ncontract core {\n\tusing SafeMath for uint;\n    enum Stages {\n        FirstStage,\n        SecondStage,\n        ThirdStage,\n\t\tFinished\n    }\n    \n    enum ApplicantStages {\n        Asked,\n        NotAsked\n    }\n\n    struct Investor {\n        uint amount;\n        bool secondPay;\n        bool thirdPay;\n    }\n\n    // CrowdFunding config\n    Stages public stage;\n    ApplicantStages public applicantStage;\n    \n    address payable public owner; //Applicant\n    uint public numInvestors; \n    uint public goalAmount; \n    uint public amountRaised;\n\tuint public amountPaid;\n    uint public primaryCheckPoint;\n    uint public secondaryCheckPoint;\n    mapping (address => Investor) public investors;\n\tmapping (uint => address) public helper;\n    \n    \n    // Initialize\n    constructor() public {\n        owner = msg.sender;\n        goalAmount = 10 ether;\n        stage = Stages.FirstStage;\n        applicantStage = ApplicantStages.NotAsked;\n        primaryCheckPoint = 20; //percent\n        secondaryCheckPoint = 60; //percent\n    }\n    \n    // First Funding\n    function fund() public payable onlyStageAt(Stages.FirstStage){\n        investors[msg.sender].amount = msg.value;\n\t\tnumInvestors += 1;\n\t\thelper[numInvestors] = msg.sender;\n        amountRaised += msg.value;\n    }\n    \n    function firstEarn() public payable onlyOwner onlyStageAt(Stages.FirstStage){\n        require(amountRaised >= goalAmount);\n        owner.transfer(amountRaised * primaryCheckPoint / 100);\n\t\tamountPaid.add(amountRaised * primaryCheckPoint / 100);\n        stage = Stages.SecondStage;\n    }\n    \n    function firstRequest() public onlyOwner onlyStageAt(Stages.SecondStage){\n        applicantStage = ApplicantStages.Asked;\n    }\n    \n    function secondFund(bool _approve) public onlyStageAt(Stages.SecondStage) onlyAt(ApplicantStages.Asked){\n\t\tinvestors[msg.sender].secondPay = _approve;\n    }\n\n\tfunction secondEarn() public payable onlyOwner onlyStageAt(Stages.SecondStage) onlyAt(ApplicantStages.Asked) {\n\t\tuint _amount;\n\t\tfor(uint i = 1; i <= numInvestors; i++) {\n\t\t\tif(investors[helper[i]].secondPay) {\n\t\t\t\t_amount.add( investors[helper[i]].amount * (secondaryCheckPoint - primaryCheckPoint) / 100 );\n\t\t\t}\n\t\t}\n\n\t\towner.transfer(_amount);\n\t\tstage = Stages.ThirdStage;\n\t\tapplicantStage = ApplicantStages.NotAsked;\n\t}\n\n\tfunction secondRequest() public onlyOwner onlyStageAt(Stages.ThirdStage){\n\t\tapplicantStage = ApplicantStages.Asked;\n\t}\n\n\tfunction thirdFund(bool _approve) public onlyStageAt(Stages.ThirdStage) onlyAt(ApplicantStages.Asked){\n\t\tinvestors[msg.sender].thirdPay = _approve;\n    }\n\n\tfunction thirdEarn() public payable onlyOwner onlyStageAt(Stages.ThirdStage) onlyAt(ApplicantStages.Asked) {\n\t\tuint _amount;\n\t\tfor(uint i = 1; i <= numInvestors; i++) {\n\t\t\tif(investors[helper[i]].thirdPay) {\n\t\t\t\t_amount.add( investors[helper[i]].amount * (1 - secondaryCheckPoint) / 100 );\n\t\t\t}\n\t\t}\n\n\t\towner.transfer(_amount);\n\t\tstage = Stages.Finished;\n\t\tapplicantStage = ApplicantStages.NotAsked;\n\t}\n    \n    // modifiers\n    modifier onlyStageAt(Stages _stage) {\n        require(stage == _stage);\n        _;\n    }\n\n\tmodifier onlyAt(ApplicantStages _applicantStage) {\n\t\trequire(applicantStage == _applicantStage);\n\t\t_;\n\t}\n    \n    modifier onlyOwner{\n        require(owner == msg.sender);\n        _;\n    }\n}",
  "sourcePath": "/Users/shimotori/workspace/hackathon/mirai/blockchain/contracts/CloudFunding.sol",
  "compiler": {
    "name": "solc",
    "version": "0.5.8+commit.23d335f2.Emscripten.clang"
  },
  "schemaVersion": "3.0.6",
  "updatedAt": "2019-06-08T10:49:49.712Z",
  "devdoc": {
    "methods": {}
  },
  "userdoc": {
    "methods": {}
  }
}